:020000020000FC
:1000000054656D70657261747572653A48756D6995
:10001000646974792020203A28E02EBF3FEF3DBF6D
:100020000E9423010E9426000E949B000E942D0036
:100030000E9493000E94FC000E94CE000E948B0050
:100040000E9416010E948701EDCFFFCF0FEF0AB982
:100050002098389A399A3A9A089542980E94230132
:10006000429A42983A980E945F010E9473010E944E
:1000700073010E944B01329BFECF0E9448000E94F8
:100080005F000E9475000E94B7000E94E50008957D
:1000900029E02A95203089F0329BFECF0E945F0133
:1000A000329B01C005C0990F9E7F329BF2CFFDCFDE
:1000B000990F9160329BEDCFFDCF092F089529E074
:1000C0002A95203089F0329BFECF0E945F01329B3F
:1000D00001C005C0660F6E7F329BF2CFFDCF660F69
:1000E0006160329BEDCFFDCF089529E02A95203045
:1000F00089F0329BFECF0E945F01329B01C005C098
:10010000880F8E7F329BF2CFFDCF880F8160329BAC
:10011000EDCFFDCF0895E0E0F0E005910E94AE0044
:100120000A33D9F70895ECE0F0E005910E94AE00A3
:100130000A33D9F7089501E00E94A50008E30E9460
:10014000A5000FE00E94A50008950BB94198409AC0
:1001500040980E944B010E944B0108950BB9419AAF
:10016000409A40980E944B010E944B010895092F2C
:1001700011270A5010F01395FCCF065F1295012B42
:1001800010E3102E007F0695069506950695010F43
:10019000A02F012D0F70010FB02F0895062F1127EA
:1001A0000A5010F01395FCCF065F1295012B10E357
:1001B000102E007F0695069506950695010FA02F37
:1001C000012D0F70010FB02F0895082F11270A502D
:1001D00010F01395FCCF065F1295012B10E3102E43
:1001E000007F0695069506950695010FC02F012DF7
:1001F0000F70010FD02F08950A2F0E94AE000B2F11
:100200000E94AE0000E20E94AE0005E20E94AE0035
:1002100000EC0E94A50008950A2F0E94AE000B2F4B
:100220000E94AE0005E20E94AE0008950C2F0E94CD
:10023000AE000D2F0E94AE0000E20E94AE0003E46B
:100240000E94AE0008957EEE709385007CE6709368
:10025000840070E07093800073E070938100B09B25
:10026000FECF70E07093810071E076BB08957FEF60
:100270007093850076EF7093840070E07093800037
:1002800073E070938100B09BFECF70E070938100AB
:1002900073E076BB08957FEF7093850073EF7093E2
:1002A000840070E07093800073E070938100B09BD5
:1002B000FECF70E07093810073E076BB08957FEF0E
:1002C0007093850078EF7093840070E070938000E5
:1002D00073E070938100B09BFECF70E0709381005B
:1002E00073E076BB08957FEF709385007CEE70938A
:1002F000840070E07093800073E070938100B09B85
:10030000FECF70E07093810073E076BB089578E3D0
:10031000709385007FEA7093840070E07093800092
:1003200075E070938100B09BFECF70E07093810008
:0603300073E076BB0895A6
:00000001FF
